:020000040800F2
:100000007008002045130008590600085B06000828
:100010005F0600086306000867060008000000008D
:100020000000000000000000000000006B06000857
:100030006D060008000000006F0600087106000849
:100040005F1300085F1300085F1300085F130008C8
:100050005F1300085F1300085F1300085F130008B8
:100060005F1300085F1300085F1300085F130008A8
:100070005F1300085F1300085F1300085F13000898
:100080005F1300085F1300085F1300085F13000888
:100090005F1300085F1300085F1300085F13000878
:1000A0005F1300085F1300085F1300085F13000868
:1000B0005F1300085F1300085F1300085F13000858
:1000C0005F1300085F1300085F1300085F13000848
:1000D0005F130008AD120008331200085F13000818
:1000E0005F1300085F1300085F1300085F13000828
:1000F0005F1300085F1300085F1300085F13000818
:100100005F1300085F1300085F1300085F13000807
:100110005F1300085F1300085F1300085F130008F7
:100120005F1300085F1300085F1300085F130008E7
:1001300000F002F800F03AF80AA090E8000C8244BF
:100140008344AAF10107DA4501D100F02FF8AFF29C
:10015000090EBAE80F0013F0010F18BFFB1A43F0A5
:10016000010318471822000038220000103A24BF6B
:1001700078C878C1FAD8520724BF30C830C144BF0C
:1001800004680C607047000000230024002500264E
:10019000103A28BF78C1FBD8520728BF30C148BFEA
:1001A0000B6070471FB51FBD10B510BD02F0A2F85F
:1001B0001146FFF7F7FF00F009F802F0D4F803B496
:1001C000FFF7F2FF03BC00F089FF0000082500F0F4
:1001D000E1FE00F049FF4FF4165000F08EFF00F0F2
:1001E0008EFC00F077FB00208F4908608F49C1F832
:1001F00094018FA002F040F8BBE08B488C38006877
:1002000048B90A2000F003FF87488C38006810B90D
:100210008AA002F031F800208349091D08608A494C
:10022000522000F026FD044624B90224874800F03D
:100230004BFD0446002C7DD102248448007884497B
:100240000978884230D1814840788149497888428C
:100250002AD17E4880787E498978884224D17B489B
:10026000C0787B49C97888421ED10120794908703D
:100270006D49091D08606D49C1F890014FF4FA609D
:1002800000F0C5FE0020684908604FF4FA6000F0F5
:10029000BEFE01206549C1F890014FF4FA6000F0FC
:1002A000B6FE002060490860684800786A4909780D
:1002B000884233D1654840786749497888422DD1D2
:1002C0006248807864498978884227D15F48C0783D
:1002D0006149C978884221D101206049087052499A
:1002E00008604FF4FA6000F092FE00204F49C1F818
:1002F00090014FF4FA6000F08AFE01204A4908603C
:100300004FF4FA6000F083FE0020474908600120A6
:10031000091D08604CF2503000F079FE4F4800781B
:100320004F49097808444F49097808444E490978EB
:10033000084400E008E04749097808444B49087040
:10034000424800F032FD04463CB902243F4B484A83
:100350000921602000F063FD04462CB902244549C0
:10036000284600F087FD04461CB90224642000F0F2
:100370004EFE42E710B502460120002302E0504342
:100380005C1CE3B28B42FADB10BD2DE9F047064658
:100390000F46904699460225052400BF43463A463B
:1003A0003146602000F03BFD0546601EC4B20DB131
:1003B000002CF3DC0225052400BF4946304600F03E
:1003C00059FD0546601EC4B20DB1002CF5DC28466F
:1003D000BDE8F0872DE9F04706460F46904699465E
:1003E0000225052400BF43463A463146602000F00E
:1003F00016FD0546601EC4B20DB1002CF3DC0225CB
:10040000052400BF4946304600F05FFD0546601EEA
:10041000C4B20DB1002CF5DC2846BDE8F08730B53C
:10042000DDE9034530BD70479081214200802142C3
:10043000B3F5CABCBBAFCDEAB3C9000064616E6757
:1004400065726F757300000000000020020000203C
:100450000C000020060000201000002007000020F3
:1004600008000020090000200A0000200B000020E6
:10047000200000206C0000200CB5002001900090AE
:100480006C48006840F480306A49086000BF6948E1
:10049000006800F4003000900198401C0190009822
:1004A00018B90198B0F5A06FF1D16248006800F466
:1004B000003010B10120009001E000200090009871
:1004C000012843D15C48006840F010005A49086098
:1004D0000846006820F0030008600846006840F005
:1004E0000200086053484068524948600846406826
:1004F00048600846406840F48060486008464068AC
:1005000020F47C1048600846406840F4E8104860D9
:100510000846006840F08070086000BF45480068E9
:1005200000F000700028F9D04248406820F0030035
:10053000404948600846406840F00200486000BFFB
:100540003C48406800F00C000828F9D10CBD10B5FB
:10055000FFF792FF10BD10B53648006840F001006B
:1005600034490860084640683449084031494860C9
:1005700008460068324908402E490860084600686D
:1005800020F4802008600846406820F4FE0048609F
:100590004FF41F008860FFF7DAFF4FF00060294931
:1005A000086010BD10B5002100200022214B5B68BF
:1005B00003F00C0121B1042906D0082928D107E055
:1005C000214B224C236027E01F4B204C236023E06B
:1005D000184B5B6803F47010164B5B6803F48032B1
:1005E000022303EB904022B9194B4343174C23607D
:1005F0000DE0104B5B6803F4003323B1144B43430D
:10060000124C236003E0104B4343104C236003E083
:100610000D4B0E4C236000BF00BF064B5B68C3F35D
:1006200003130C4CE15C094B1B68CB40074C236067
:1006300010BD000000100240002002400000FFF842
:10064000FFFFF6FE08ED00E000127A0038000020FF
:1006500000093D003C000020704700BFFEE700BFDE
:10066000FEE700BFFEE700BFFEE770477047704738
:100670007047000000B587B00121042001F09EF909
:100680000121080301F09AF9A020ADF81800182004
:100690008DF81B0003208DF81A0006A9884800F089
:1006A000D1FE1020ADF8180003208DF81A0010209C
:1006B0008DF81B0006A9824800F0C4FE1021804876
:1006C00000F06FFF1020ADF8180003208DF81A001D
:1006D00010208DF81B0006A97A4800F0B3FE102107
:1006E000784800F05EFF0120ADF8180003208DF877
:1006F0001A0010208DF81B0006A9734800F0A2FE16
:100700000121714800F04DFF0020ADF804004FF4C6
:100710008270ADF806000020ADF808000220ADF8A8
:100720000A000120ADF80C004002ADF80E000020D8
:10073000ADF81000ADF812000720ADF8140001A9C3
:10074000624801F0C5F90121604801F066FA07B07E
:1007500000BD00B587B001210C2001F02FF9012167
:10076000880301F038F90320ADF8180010208DF847
:100770001B0003208DF81A0006A9514800F062FE04
:1007800002214F4800F00DFF4FF46040ADF8180013
:1007900018208DF81B0003208DF81A0006A94A487E
:1007A00000F050FE4FF46041474800F0F8FE002092
:1007B000ADF804004FF48270ADF806000020ADF8EB
:1007C0000800ADF80A00ADF80C004FF40070ADF869
:1007D0000E003820ADF810000020ADF81200072000
:1007E000ADF8140001A93A4801F072F90121384826
:1007F00001F013FA07B000BD10B504463448008874
:100800004FF6C771084032490880084600882043E7
:10081000088001212E4801F000FA10BD70B5054690
:10082000002405E0601CC4B2C82C01DD002070BDAE
:100830000221274801F075FA0028F3D02946244800
:1008400001F01CFA002405E0601CC4B2C82C01DDD4
:100850000020ECE701211E4801F063FA0028F3D0E4
:100860001B4801F00DFAC0B2E1E7024600BF108953
:1008700000F002000028FAD0918100BF108900F03A
:1008800001000028FAD09089C0B27047014600BF2D
:100890000F480830008800F002000028F8D00C480B
:1008A0000C30018000BF0A480830008800F00100C9
:1008B0000028F8D006480C300088C0B2704700000D
:1008C0000008014000100140000C014000300140D0
:1008D0000038004008B50121192001F06FF801210E
:1008E0001B4800F080FE01211A4800F07CFE3020F9
:1008F000ADF8000010208DF8030003208DF80200F1
:100900006946154800F09EFD2021134800F047FE7F
:100910004FF40050ADF800006946104800F092FD19
:100920004FF400510E4800F03AFE0220ADF80000EE
:1009300004208DF8030003208DF802006946064864
:1009400000F080FD1021044800F02BFE08BD0000DF
:100950000004300000023000000C0140001801408B
:1009600000100140002103E000BF00BF00BF491C90
:100970008142F9D3704770B504460D460120F8490D
:1009800008607E2000EA44063046FFF77FFF2846D5
:10099000FFF77CFF0120F249091F086070BD70B5A8
:1009A000044600260120EE4908607E2000EA44004B
:1009B00040F080052846FFF769FF0020FFF766FF3B
:1009C00006460120E649091F0860304670BD70B533
:1009D00005460C4600262846FFF7E1FF064646EA94
:1009E00004012846FFF7C7FF70BD10B51420FFF7BC
:1009F000D6FF044604F0030018B903211420FFF7C2
:100A0000E6FF10BD70B505460C4600262846FFF7E8
:100A1000C6FF064626EA04012846FFF7ACFF70BD74
:100A200010B50446412C26D108210846FFF7EAFFFD
:100A30003D211120FFF79FFF86211720FFF79BFF25
:100A40007F212620FFF797FF1E212D20FFF793FF20
:100A500000212C20FFF78FFF8D212A20FFF78BFF2D
:100A60003E212B20FFF787FF4FF47A70FFF77AFFC4
:100A7000FFF7BBFF01E0012010BD0020FCE710B52F
:100A800003211420FFF7BEFF10BD10B50220B449AA
:100A9000091F08600A20FFF765FF0220B0490860BF
:100AA0000A20FFF75FFF0220AD49091F08600A20F6
:100AB000FFF758FF0F210120FFF75DFF0F210120F5
:100AC000FFF759FF0A20FFF74DFF3D211120FFF7E7
:100AD00052FF1E212D20FFF74EFF00212C20FFF793
:100AE0004AFF8D212A20FFF746FF3E212B20FFF7EA
:100AF00042FF40211520FFF73EFF002010BD10B53A
:100B0000FFF727FEFFF7C1FFFFF7B9FF022000F054
:100B10007EFAFFF76AFF4120FFF782FF10BD10B594
:100B2000FFF7B3FFFFF7ABFF022000F070FAFFF70B
:100B30005CFF10BD2DE9FE4F0646884691469A4659
:100B4000DDF830B0022002900020019000900C2EC1
:100B500006D00E2E09D1122001901020009005E041
:100B6000772001903020009000E000BF00BF019886
:100B700040F080010220FFF7FEFE80210420FFF7F5
:100B800041FF00210120FFF7F6FE80210A20FFF738
:100B90001EFF002506E018F805100920FFF7EBFE00
:100BA000681C85B24D45F6DB31460120FFF7E3FEB8
:100BB0000C2E03D180210D20FFF709FF4FF4FA65B9
:100BC00000BF0420FFF7EBFE0446681E85B235B176
:100BD00004F0010018B9009820400028F1D08021CD
:100BE0000D20FFF70FFF002D38D00620FFF7D7FEAE
:100BF00000F01B0078BB002002900198204000F01C
:100C0000010008B1012002900C2E27D10A20FFF725
:100C1000C6FE04460C20FFF7C2FE00F007072FB106
:100C2000601E07EBC0008BF8000003E0E006000E3A
:100C30008BF8000004B90124122C00DD12240025D9
:100C400006E00920FFF7ABFE0AF80500681C85B234
:100C5000A542F6DB02E0FFE70220029080210C2093
:100C6000FFF7B5FE00210120FFF785FE0298BDE8E1
:100C7000FE8F70B588B005460C4608210846FFF780
:100C8000C1FE07210D20FFF776FE03211420FFF798
:100C90009EFE8DF8085007A802AB012202A9009021
:100CA0000C20FFF747FF064656B99DF81C00102898
:100CB00006D19DF8080020709DF80900607000E0E2
:100CC0000226304608B070BDF0B587B00546002753
:100CD00008210846FFF796FE00210D20FFF74BFE86
:100CE00080210E20FFF78EFE93208DF80400202037
:100CF0008DF8050006A801AB022201A900900C2086
:100D0000FFF718FF064686B9002407E001A8005D3A
:100D1000285501A8005D4740601CC4B2042CF5DBD7
:100D200001A8005DB84200D0022680210E20FFF706
:100D30004EFE304607B0F0BD2DE9F041074688462B
:100D4000154604210520FFF75DFE00210120FFF775
:100D500012FE80210A20FFF73AFE002408E000007E
:100D600014080140395D0920FFF705FE601CC4B27C
:100D70004445F7DB03210120FFF7FDFDFF2400BF01
:100D80000520FFF70CFE0646601EC4B21CB106F03B
:100D900004000028F4D02220FFF701FE2870212053
:100DA000FFF7FDFD6870BDE8F08170B588B00546BD
:100DB00093208DF8080070208DF8090000208DF830
:100DC0000E0000240BE0295D02AAA01C11549DF81E
:100DD0000E00295D48408DF80E00601CC4B2042C42
:100DE000F1DB0DF10F02072102A8FFF7A5FF082193
:100DF0000846FFF707FE07A802AB092202A90090E8
:100E00000C20FFF797FE06462EB99DF81C00182807
:100E100001D1002600E00226304608B070BD2DE961
:100E2000F04188B004460D4616461F468DF808402E
:100E30008DF809503068CDF80A00B088ADF80E0082
:100E40003868049007A802AB0C2202A900900E207B
:100E5000FFF770FE8046B8F1000F05D10820FFF7BC
:100E60009EFD00F0080008B94FF00208404608B0A7
:100E7000BDE8F081F0B587B005460E4630208DF80C
:100E800004008DF805500DF10602022101A8FFF7BC
:100E900053FF06A801AB042201A900900C20FFF724
:100EA00049FE07466FB99DF81800902809D1002423
:100EB00004E001A8005D3055601CC4B2102CF8DBC2
:100EC00000E00227384607B0F0BDF0B587B006460F
:100ED0000F46A0208DF804008DF805600DF1060284
:100EE000022101A8FFF728FF06A801AB042201A9EF
:100EF00000900C20FFF71EFE05464DB99DF8180026
:100F0000042805D19DF8040000F00F000A2800D045
:100F1000022515BB002404E0385D01A90855601CBA
:100F2000C4B2102CF8DB05AA102101A8FFF704FFBA
:100F300006A801AB122201A900900C20FFF7FAFDD0
:100F400005464DB99DF81800042805D19DF8040008
:100F500000F00F000A2800D00225284607B0F0BD97
:100F600010B588B050208DF8080000208DF80900D9
:100F70000DF10A02022102A8FFF7DEFE07A802AB6C
:100F8000042202A900900C20FFF7D4FD04460020A3
:100F900008B010BD10B56FF0040001F04CF92E48F8
:100FA00000682E49B0FBF1F02D4908700846007822
:100FB00000EB4001C1EBC0104FF6FF7101EAC00029
:100FC0002849088010BD0146254A12784A434FF04F
:100FD000E0235A6100229A611A46126942F0010226
:100FE0001A6100BF4FF0E022106900F001021AB14F
:100FF00000F48032002AF5D04FF0E022126922F08E
:1010000001024FF0E0231A6100229A617047014605
:10101000144A12884A434FF0E0235A6100229A6131
:101020001A46126942F001021A6100BF4FF0E02235
:10103000106900F001021AB100F48032002AF5D0E4
:101040004FF0E022126922F001024FF0E0231A6112
:1010500000229A61704700003800002000127A00D8
:101060004C0000204E00002010B54FF4A06001F0AD
:1010700093F810BD10B50A460346C41700EB14548C
:10108000241330341470C41700EB14542413A0EB51
:101090000434A1B20B46CC1701EB14642412303493
:1010A00054700346C41700EB14642412A0EB04240C
:1010B000A1B20B46CC1701EB147424113034947098
:1010C0000346C41700EB14742411A0EB0414A1B25E
:1010D00001F13003D3702023137110BD014600BF0E
:1010E000704700BF904A128802F04002002AF9D0EF
:1010F000C2B28D4B1B1D1A80704710B586B00446D6
:10110000012144F2040000F059FC874800F040FE41
:101110004FF40070ADF8140003208DF8160018206D
:101120008DF8170005A9814800F08CF94FF4806014
:10113000ADF8140004208DF8170005A97B4800F0D5
:1011400081F925208DF8000003208DF801008DF82D
:10115000020001208DF80300684601F022F8019496
:101160000020ADF80800ADF80A00ADF80C00ADF8AD
:1011700010000C20ADF80E0001A96B4800F04BFEEA
:10118000012240F22551684800F0DDFE0121664849
:1011900000F0CDFE06B010BD10B586B004460121AA
:1011A000042000F00BFC0121480400F014FC042092
:1011B000ADF8140003208DF8160018208DF81700E4
:1011C00005A95A4800F03EF90820ADF814000420A3
:1011D0008DF8170005A9554800F034F926208DF840
:1011E000000000208DF801008DF8020001208DF82C
:1011F0000300684600F0D5FF01940020ADF8080018
:10120000ADF80A00ADF80C00ADF810000C20ADF8F8
:101210000E0001A9464800F0FEFD012240F22551D2
:10122000434800F090FE0121414800F080FE06B0E6
:1012300010BD10B540F225513D4800F069FF10B3D4
:101240003B4800F0E5FEC4B23A48008800F4004094
:10125000C8B93848008800F4804060B1602C03D0E1
:1012600000203449088020E03248008840F40040E3
:101270003049088019E0502C06D12E48008840F4EF
:1012800080402C49088010E02A480088C0F30D00F7
:1012900029490C5427480088401C264908800846E4
:1012A0000088C72801DD0020088010BD10B540F27D
:1012B00025511D4800F02CFF10B31B4800F0A8FE7C
:1012C000C4B21E48008800F40040C8B91B4800881A
:1012D00000F4804060B10A2C03D000201749088038
:1012E00020E01648008840F400401449088019E0C6
:1012F0000D2C06D11148008840F480400F49088029
:1013000010E00E480088C0F30D000D490C540B4846
:101310000088401C0949088008460088C72801DD6C
:101320000020088010BD0000003801400008014086
:1013300000440040560000204401002054000020DA
:101340007C0000200948804709480047FEE7FEE787
:10135000FEE7FEE7FEE7FEE7FEE7FEE7FEE7FEE765
:1013600004480549054A064B704700005705000828
:101370003101000870020020700800207004002075
:101380007004002010B50446CC48844208D10121E5
:10139000042000F02DFB0021042000F029FB46E092
:1013A000C748844208D10121082000F021FB002118
:1013B000082000F01DFB3AE0C248844208D1012118
:1013C000102000F015FB0021102000F011FB2EE092
:1013D000BD48844208D10121202000F009FB0021F2
:1013E000202000F005FB22E0B848844208D101210A
:1013F000402000F0FDFA0021402000F0F9FA16E04C
:10140000B348844208D10121802000F0F1FA002184
:10141000802000F0EDFA0AE0AE48844207D10121B5
:10142000801500F0E5FA0021A01500F0E1FA10BDEA
:1014300010B50121084600F0DBFA0021012000F080
:10144000D7FA10BD2DE9F041024600250026002004
:1014500000230024002791F803C00CF00F0591F839
:1014600003C00CF0100CBCF1000F03D091F802C0C7
:101470004CEA050591F800C0BCF1000F31D01468AA
:1014800000202BE04FF0010C0CFA00F3B1F800C083
:101490000CEA03069E4220D183004FF00F0C0CFA99
:1014A00003F7BC4305FA03FC4CEA040491F803C0BB
:1014B000BCF1280F06D14FF0010C0CFA00FCC2F869
:1014C00014C00AE091F803C0BCF1480F05D14FF0F9
:1014D000010C0CFA00FCC2F810C0401C0828D1D343
:1014E0001460B1F800C0BCF1FF0F34DD5468002077
:1014F0002EE000F1080C4FF0010808FA0CF3B1F8E7
:1015000000C00CEA03069E4221D183004FF00F0C6D
:101510000CFA03F7BC4305FA03FC4CEA040491F807
:1015200003C0BCF1280F05D100F1080C08FA0CF833
:10153000C2F8148091F803C0BCF1480F07D100F144
:10154000080C4FF0010808FA0CF8C2F81080401C93
:101550000828CED35460BDE8F0814FF6FF710180BA
:10156000022181700421C1707047024600209368F7
:101570000B400BB1012000E0002070470146886855
:1015800080B2704702460020D3680B400BB10120A7
:1015900000E0002070470146C86880B270470161D2
:1015A0007047416170470AB1016100E041617047D5
:1015B000C16070474FF480320A4382618161826169
:1015C00082698269704702460020434B18684FF6D3
:1015D0008073184040EA021008433F4B1860704780
:1015E0003E49C8617047F0B50A4600230024002137
:1015F000002500F00046B6F1004F02D1364EF169E9
:1016000001E0354E7168C0F3034583B200F4401623
:10161000B6F5401F08D121F070612F4E766826F094
:1016200070662D4F7E6012E000F48016B6F5801FC4
:1016300006D1032606FA05F4A14341F0706106E0E5
:10164000460D360103FA06F6B14341F0706122B14E
:10165000460D360103FA06F6314300F00046B6F1B6
:10166000004F02D11C4EF16101E01B4E7160F0BDD4
:1016700030B500228B071C0F0F2303FA04F2164B20
:1016800008338C1053F824309343134C08348D10D6
:1016900044F8253023468C1053F824308C07240F4F
:1016A00000FA04F423430C4C08348D1044F8253020
:1016B00030BD0A49DC310860704700000008014075
:1016C000000C0140001001400014014000180140CE
:1016D000001C0140002001400000014000002042A9
:1016E000DF48006840F00100DD49086008464068B6
:1016F000DC490840DA49486008460068DA49084091
:10170000D74908600846006820F480200860084631
:10171000406820F4FE0048604FF41F008860704766
:10172000CF49096821F48031CD4A1160114609681A
:1017300021F480211160B0F5803F03D0B0F5802FF7
:101740000ED106E0C649096841F48031C44A1160EF
:1017500007E0C349096841F4A021C14A116000E0D3
:1017600000BF00BF704710B50146002200230020D3
:101770004A11012A02D1BA4C236806E0022A02D19A
:10178000B74C236A01E0B64C636A01F01F020124E2
:1017900094401C400CB1012000E0002010BD38B581
:1017A000002000900024002500BF3120FFF7DBFF60
:1017B00005460098401C00900098B0F5A06F01D03D
:1017C000002DF2D03120FFF7CEFF08B1012400E058
:1017D0000024204638BD01460020A14A106820F0B0
:1017E000F80040EAC10010607047A04908607047E7
:1017F000024600209A4B586820F47C1042EA01030C
:101800001843974B586070479849086670470146DF
:101810000020934A506820F003000843506070474E
:101820008F48406800F00C007047014600208C4A49
:10183000506820F0F00008435060704701460020D7
:10184000874A506820F4E0600843506070470146C2
:101850000020834A506820F4605040EAC100506084
:10186000704729B17E4A527A02437D4B5A7204E096
:101870007B4A527A82437A4B5A7270477B49D831FD
:101880000860704701460020754A506820F44040C7
:101890000843506070470021714A20321170704A2D
:1018A00082F82010012802D004280AD104E0012186
:1018B0006B4A2032117005E00521694A203211700F
:1018C00000E000BF00BF7047694908607047644985
:1018D000096A0143624A11627047654944390860E8
:1018E000704730B500210022002400235C4D6D6854
:1018F00005F00C0121B1042905D0082923D105E008
:101900005C4D056022E05B4D05601FE0544D6D6845
:1019100005F47012524D6D6805F48034022505EB14
:1019200092421CB9544D554305600BE04C4D6D6817
:1019300005F400351DB1504D5543056002E04D4D95
:101940005543056002E04B4D056000BF00BF444DAC
:101950006D6805F0F0010909484D6B5C0568DD40D4
:1019600045603F4D6D6805F4E061090A434D6B5CCD
:101970004568DD4085603A4D6D6805F46051C90ADF
:101980003E4D6B5C4568DD40C560354D6D6805F4C6
:101990004041890B3A4D6B5CC568B5FBF3F50561B9
:1019A00030BD29B12E4A526902432D4B5A6104E0E1
:1019B0002B4A526982432A4B5A61704729B1284AFF
:1019C00092690243264B9A6104E0254A9269824358
:1019D000234B9A61704729B1214AD2690243204BB7
:1019E000DA6104E01E4AD26982431D4BDA61704716
:1019F00029B11B4AD2680243194BDA6004E0184A45
:101A0000D2688243164BDA60704729B1144A1269D2
:101A10000243134B1A6104E0114A12698243104BCE
:101A20001A61704712494039086070470F49C8640D
:101A300070470B49C87170470948406A40F0807090
:101A400007494862704701460020054A92680A40EB
:101A50000AB1012000E000207047014988727047F8
:101A6000001002400000FFF8FFFFF6FE00004242B7
:101A70008004424200127A0000093D005800002014
:101A80006800002010B50446BE48844208D10121F8
:101A90008014FFF7ADFF0021A014FFF7A9FF16E0A7
:101AA000B948844208D101210014FFF7AEFF00219C
:101AB0002014FFF7AAFF0AE0B448844207D10121AD
:101AC000C013FFF7A2FF0021E013FFF79EFF10BD38
:101AD00010B50022028802F441520B884C8823433F
:101AE0008C882343CC8823430C8923434C8923438C
:101AF0008C892343CC8923431A430280838B4FF282
:101B0000FF74234083830B8A038210BD2DE9F04FBD
:101B100085B005460C464FF0000902274FF000083B
:101B20004FF0010B0026B246A88B4FF2400108404F
:101B3000A88302202884B5F81C90A068022801D14F
:101B400000BF38E0A08810B94FF0010B01E04FF062
:101B5000020B8D48854200D100E000BF6846FFF7C8
:101B6000C0FEDDF800A0E088B0F5007F0AD14FEAA2
:101B70001A2000EB80004000A168B0FBF1F0401D8E
:101B800086B20BE04FEA4B10BAFBF0F000EB80009E
:101B90004000A168B0FBF1F0401D86B20A20B6FB00
:101BA000F0F606F00108A6EB0800C0F34F074FF669
:101BB000FF7000EA0828022F01DBFF2F02DD022759
:101BC0004FF00008E08840EA080038432884A088E5
:101BD000A1890843618808432188084340F40060D4
:101BE00040EA0909A5F81C9005B0BDE8F08F002176
:101BF000018041808180C180018141818181C181D9
:101C00000721018270470021018041808180C180CD
:101C10000221816000218181704721B1028842F058
:101C20004002028004E002884FF6BF731A4002802F
:101C3000704721B1828B42F48062828304E0828B00
:101C40004FF6FF331A408283704730B500240023DB
:101C50000C110125A540ABB21AB185881D438580C2
:101C600002E085889D43858030BD1AB183880B438F
:101C7000838002E083888B43838070478181704733
:101C80000146888970474FF6FF62914204D002886E
:101C900042F48072028004E002884FF6FF631A402B
:101CA0000280704721B1828842F00402828004E001
:101CB00082884FF6FB731A408280704702884FF289
:101CC000FF731A40028002880A430280704701882D
:101CD00041F480510180704721B1028842F40052E2
:101CE000028004E002884DF6FF731A4002807047BC
:101CF00002460020012901D0108B00E0908A704735
:101D00000146088A7047B1F5804F04D1028842F439
:101D10008042028004E002884BF6FF731A40028082
:101D200070470246002013890B400BB1012000E0F0
:101D300000207047CA4302817047F0B50246002078
:101D400000240023002501F00F070126BE40B4B295
:101D50000B1101269E40B3B2968806EA0305168948
:101D6000264016B10DB1012000E00020F0BD10B5F5
:101D7000002201F00F040123A3409AB2D343038150
:101D800010BD00000030014000380040003C004021
:101D900010B50446FB48844209D101218803FFF7AE
:101DA00027FE00214FF48040FFF722FE32E0F64884
:101DB000844209D101214804FFF727FE00214FF496
:101DC0000030FFF722FE25E0F048844209D10121CE
:101DD0008804FFF71AFE00214FF48020FFF715FE5C
:101DE00018E0EB48844209D10121C804FFF70DFE39
:101DF00000214FF40020FFF708FE0BE0E548844285
:101E000008D101210805FFF700FE00214FF48010E2
:101E1000FFF7FBFD10BD2DE9F04786B005460E46E5
:101E20000024A24600BFA1460027B08900B100BF30
:101E30002F462C8A4CF6FF700440F08804432C8215
:101E4000AC894EF6F3100440B0883189084371899B
:101E500008430443AC81AC8A4FF6FF400440B0898C
:101E60000443AC8201A8FFF73CFDC648874202D17B
:101E7000DDF810A001E0DDF80CA0A88900F4004016
:101E800040B10AEBCA0000EB0A1031684900B0FB10
:101E9000F1F807E00AEBCA0000EB0A10316889008C
:101EA000B0FBF1F86420B8FBF0F0040120096421D4
:101EB00001FB1089A88900F4004040B1322000EBFA
:101EC000C900B0FBF1F000F00700044308E0322045
:101ED00000EB09106421B0FBF1F000F00F000443A7
:101EE0002C8106B0BDE8F0874FF416510160002147
:101EF0008180C18001810C21418100218181704755
:101F000010B502460020108A4FF2FF0318400B88DC
:101F10004C8823438C882343CC8823431843108266
:101F200010BD0021018041808180C180704721B1B6
:101F3000828942F40052828104E082894DF6FF7367
:101F40001A4082817047F0B5034600240026002520
:101F5000002040F66A17B94200D100BF1846C1F30D
:101F6000421401F01F06012707FA06F5012C01D1E2
:101F70000C3004E0022C01D1103000E014301AB112
:101F800007682F43076002E00768AF430760F0BDB2
:101F90001AB1838A0B43838202E0838A8B43838254
:101FA0007047028A4FF6F0731A400282028A0A438F
:101FB0000282704782894FF2FF731A4082818289C0
:101FC0000A438281704721B1828942F002028281F4
:101FD00004E082894FF6FD731A4082817047028ABD
:101FE0004FF6DF731A400282028A0A430282704768
:101FF00021B1028A42F48042028204E0028A4BF656
:10200000FF731A4002827047C1F308028280704752
:1020100001468888C0F308007047818941F00101BA
:1020200081817047028BD2B20283028B42EA012285
:1020300002837047028B02F47F420283028B0A43C1
:102040000283704721B1828A42F02002828204E03A
:10205000828A4FF6DF731A408282704721B1828AEA
:1020600042F01002828204E0828A4FF6EF731A4037
:102070008282704721B1828A42F00802828204E0A3
:10208000828A4FF6F7731A408282704721B18289A3
:1020900042F40042828103E08289C2F30E0282810F
:1020A000704721B1828A42F40062828204E0828A0F
:1020B0004FF2FF731A4082827047828A4FF6FB7399
:1020C0001A408282828A0A438282704721B1828AC0
:1020D00042F00202828204E0828A4FF6FD731A40C7
:1020E0008282704702460020B1F5007F00D100BF18
:1020F00013880B400BB1012000E00020704701F471
:102100000072B2F5007F00D100BFCA430280704761
:1021100070B50246002400230025002040F66A1610
:10212000B14200D100BFC1F3421501F01F030126E7
:1021300006FA03F3012D02D19689334006E0022D01
:1021400002D1168A334001E0968A33400C120126F0
:1021500006FA04F41688344013B10CB1012000E0F3
:10216000002070BD10B50022002340F66A14A14281
:1021700000D100BF0A1201249440A3B2DC430480C2
:1021800010BD0000003801400044004000480040FD
:10219000004C00400050004031490143314A116079
:1021A000704770B5002100230F22C47804B32D4C72
:1021B000246804F4E064C4F5E064210AC1F1040376
:1021C000CA40447804FA03F1847814402143090199
:1021D000254C0678A155047804F01F050124AC4075
:1021E00005786D11AD0005F1E025C5F8004109E065
:1021F000047804F01F050124AC401C4D06787611CC
:1022000045F8264070BD1A4A0A400243154B1B1F71
:102210001A60704739B1134A121D12680243114BFC
:102220001B1D1A6006E00F4A121D126882430D4BF7
:102230001B1D1A607047042808D14FF0E02109697E
:1022400041F004014FF0E022116107E04FF0E0217E
:10225000096921F004014FF0E0221161704700008C
:102260000000FA050CED00E000E400E080E100E091
:1022700080FFFF1F704700000FB4044910B503AA88
:10228000029800F009F810BC5DF814FB5000002023
:102290007047704770477047074B70B50D467B44D9
:1022A00000F011F80446284600F020F810B14FF075
:1022B000FF3070BD204670BD41EEFFFF01694A1C32
:1022C00002610878704700B58FB0CDE90131002177
:1022D000059105497944CDE903101146684600F09F
:1022E0002EF80FB000BD0000E5FFFFFF007B00F0FF
:1022F00080007047754600F03DF8AE46050069461F
:10230000534620F00700854618B020B5FFF728F89F
:10231000BDE820404FF000064FF000074FF00008E6
:102320004FF0000B21F00701AC46ACE8C009ACE867
:10233000C009ACE8C009ACE8C0098D4670472DE97A
:10234000F04106460024D6E90170F5688046304623
:1023500003E04146B847641C3046A8470028F8D13E
:102360002046BDE8F0810446AFF300802046FDF72B
:1023700026FF0000004870470C0200209C23000844
:10238000000000206C0000006C0100080824000818
:102390006C00002004080000880100080000000014
:1023A00000000000000000000503903A708FAAC4EE
:1023B000066516FD966FC5BD36D1C4BDFFFFFFFF94
:1023C000FFFF000000000000FF078029FFFFFFFF64
:1023D000FFFF000000A24A0400000000000000000F
:1023E00001020304060708090000000000000000C5
:1023F00000000000000000000102030401020304C9
:082400000607080902040608A2
:0400000508000131BD
:00000001FF
